{
  "contractName": "RainCommunity",
  "abi": [
    {
      "anonymous": false,
      "inputs": [
        {
          "indexed": true,
          "internalType": "address",
          "name": "account",
          "type": "address"
        },
        {
          "indexed": true,
          "internalType": "address",
          "name": "sender",
          "type": "address"
        }
      ],
      "name": "MemberAdded",
      "type": "event"
    },
    {
      "anonymous": false,
      "inputs": [
        {
          "indexed": true,
          "internalType": "address",
          "name": "account",
          "type": "address"
        },
        {
          "indexed": true,
          "internalType": "address",
          "name": "sender",
          "type": "address"
        }
      ],
      "name": "MemberRemoved",
      "type": "event"
    },
    {
      "anonymous": false,
      "inputs": [
        {
          "indexed": true,
          "internalType": "address",
          "name": "creator",
          "type": "address"
        },
        {
          "indexed": true,
          "internalType": "address",
          "name": "newCommunityAddress",
          "type": "address"
        }
      ],
      "name": "NewCommunity",
      "type": "event"
    },
    {
      "anonymous": false,
      "inputs": [
        {
          "indexed": true,
          "internalType": "bytes32",
          "name": "role",
          "type": "bytes32"
        },
        {
          "indexed": true,
          "internalType": "address",
          "name": "account",
          "type": "address"
        },
        {
          "indexed": true,
          "internalType": "address",
          "name": "sender",
          "type": "address"
        }
      ],
      "name": "RoleGranted",
      "type": "event"
    },
    {
      "anonymous": false,
      "inputs": [
        {
          "indexed": true,
          "internalType": "bytes32",
          "name": "role",
          "type": "bytes32"
        },
        {
          "indexed": true,
          "internalType": "address",
          "name": "account",
          "type": "address"
        },
        {
          "indexed": true,
          "internalType": "address",
          "name": "sender",
          "type": "address"
        }
      ],
      "name": "RoleRevoked",
      "type": "event"
    },
    {
      "anonymous": false,
      "inputs": [
        {
          "indexed": false,
          "internalType": "address",
          "name": "communityTemplate",
          "type": "address"
        }
      ],
      "name": "SetCommunityTemplate",
      "type": "event"
    },
    {
      "inputs": [],
      "name": "ADMIN_ROLE",
      "outputs": [
        {
          "internalType": "bytes32",
          "name": "",
          "type": "bytes32"
        }
      ],
      "stateMutability": "view",
      "type": "function",
      "constant": true
    },
    {
      "inputs": [],
      "name": "DEFAULT_ADMIN_ROLE",
      "outputs": [
        {
          "internalType": "bytes32",
          "name": "",
          "type": "bytes32"
        }
      ],
      "stateMutability": "view",
      "type": "function",
      "constant": true
    },
    {
      "inputs": [],
      "name": "MODERATOR_ROLE",
      "outputs": [
        {
          "internalType": "bytes32",
          "name": "",
          "type": "bytes32"
        }
      ],
      "stateMutability": "view",
      "type": "function",
      "constant": true
    },
    {
      "inputs": [],
      "name": "OWNER_ROLE",
      "outputs": [
        {
          "internalType": "bytes32",
          "name": "",
          "type": "bytes32"
        }
      ],
      "stateMutability": "view",
      "type": "function",
      "constant": true
    },
    {
      "inputs": [
        {
          "internalType": "address",
          "name": "admin",
          "type": "address"
        }
      ],
      "name": "addAdmin",
      "outputs": [],
      "stateMutability": "nonpayable",
      "type": "function"
    },
    {
      "inputs": [
        {
          "internalType": "address",
          "name": "user",
          "type": "address"
        }
      ],
      "name": "addMember",
      "outputs": [],
      "stateMutability": "nonpayable",
      "type": "function"
    },
    {
      "inputs": [
        {
          "internalType": "address",
          "name": "moderator",
          "type": "address"
        }
      ],
      "name": "addModerator",
      "outputs": [],
      "stateMutability": "nonpayable",
      "type": "function"
    },
    {
      "inputs": [
        {
          "internalType": "address",
          "name": "addr",
          "type": "address"
        }
      ],
      "name": "canAppend",
      "outputs": [
        {
          "internalType": "bool",
          "name": "",
          "type": "bool"
        }
      ],
      "stateMutability": "view",
      "type": "function",
      "constant": true
    },
    {
      "inputs": [
        {
          "internalType": "address",
          "name": "",
          "type": "address"
        }
      ],
      "name": "childCommunities",
      "outputs": [
        {
          "internalType": "bool",
          "name": "deployed",
          "type": "bool"
        }
      ],
      "stateMutability": "view",
      "type": "function",
      "constant": true
    },
    {
      "inputs": [],
      "name": "communityTemplate",
      "outputs": [
        {
          "internalType": "address payable",
          "name": "",
          "type": "address"
        }
      ],
      "stateMutability": "view",
      "type": "function",
      "constant": true
    },
    {
      "inputs": [
        {
          "internalType": "bytes32",
          "name": "role",
          "type": "bytes32"
        }
      ],
      "name": "getRoleAdmin",
      "outputs": [
        {
          "internalType": "bytes32",
          "name": "",
          "type": "bytes32"
        }
      ],
      "stateMutability": "view",
      "type": "function",
      "constant": true
    },
    {
      "inputs": [
        {
          "internalType": "bytes32",
          "name": "role",
          "type": "bytes32"
        },
        {
          "internalType": "uint256",
          "name": "index",
          "type": "uint256"
        }
      ],
      "name": "getRoleMember",
      "outputs": [
        {
          "internalType": "address",
          "name": "",
          "type": "address"
        }
      ],
      "stateMutability": "view",
      "type": "function",
      "constant": true
    },
    {
      "inputs": [
        {
          "internalType": "bytes32",
          "name": "role",
          "type": "bytes32"
        }
      ],
      "name": "getRoleMemberCount",
      "outputs": [
        {
          "internalType": "uint256",
          "name": "",
          "type": "uint256"
        }
      ],
      "stateMutability": "view",
      "type": "function",
      "constant": true
    },
    {
      "inputs": [
        {
          "internalType": "bytes32",
          "name": "role",
          "type": "bytes32"
        },
        {
          "internalType": "address",
          "name": "account",
          "type": "address"
        }
      ],
      "name": "grantRole",
      "outputs": [],
      "stateMutability": "nonpayable",
      "type": "function"
    },
    {
      "inputs": [
        {
          "internalType": "bytes32",
          "name": "role",
          "type": "bytes32"
        },
        {
          "internalType": "address",
          "name": "account",
          "type": "address"
        }
      ],
      "name": "hasRole",
      "outputs": [
        {
          "internalType": "bool",
          "name": "",
          "type": "bool"
        }
      ],
      "stateMutability": "view",
      "type": "function",
      "constant": true
    },
    {
      "inputs": [],
      "name": "isOpen",
      "outputs": [
        {
          "internalType": "bool",
          "name": "",
          "type": "bool"
        }
      ],
      "stateMutability": "view",
      "type": "function",
      "constant": true
    },
    {
      "inputs": [],
      "name": "owner",
      "outputs": [
        {
          "internalType": "address",
          "name": "",
          "type": "address"
        }
      ],
      "stateMutability": "view",
      "type": "function",
      "constant": true
    },
    {
      "inputs": [],
      "name": "parentCommunity",
      "outputs": [
        {
          "internalType": "address",
          "name": "",
          "type": "address"
        }
      ],
      "stateMutability": "view",
      "type": "function",
      "constant": true
    },
    {
      "inputs": [
        {
          "internalType": "address",
          "name": "admin",
          "type": "address"
        }
      ],
      "name": "removeAdmin",
      "outputs": [],
      "stateMutability": "nonpayable",
      "type": "function"
    },
    {
      "inputs": [
        {
          "internalType": "address",
          "name": "user",
          "type": "address"
        }
      ],
      "name": "removeMember",
      "outputs": [],
      "stateMutability": "nonpayable",
      "type": "function"
    },
    {
      "inputs": [
        {
          "internalType": "address",
          "name": "moderator",
          "type": "address"
        }
      ],
      "name": "removeModerator",
      "outputs": [],
      "stateMutability": "nonpayable",
      "type": "function"
    },
    {
      "inputs": [
        {
          "internalType": "bytes32",
          "name": "role",
          "type": "bytes32"
        },
        {
          "internalType": "address",
          "name": "account",
          "type": "address"
        }
      ],
      "name": "renounceRole",
      "outputs": [],
      "stateMutability": "nonpayable",
      "type": "function"
    },
    {
      "inputs": [
        {
          "internalType": "bytes32",
          "name": "role",
          "type": "bytes32"
        },
        {
          "internalType": "address",
          "name": "account",
          "type": "address"
        }
      ],
      "name": "revokeRole",
      "outputs": [],
      "stateMutability": "nonpayable",
      "type": "function"
    },
    {
      "inputs": [
        {
          "internalType": "address",
          "name": "newOwner",
          "type": "address"
        }
      ],
      "name": "transferOwnership",
      "outputs": [],
      "stateMutability": "nonpayable",
      "type": "function"
    },
    {
      "inputs": [
        {
          "internalType": "address",
          "name": "_parentCommunity",
          "type": "address"
        },
        {
          "internalType": "address",
          "name": "_owner",
          "type": "address"
        },
        {
          "internalType": "string",
          "name": "name",
          "type": "string"
        },
        {
          "internalType": "string",
          "name": "symbol",
          "type": "string"
        },
        {
          "internalType": "address payable",
          "name": "_defaultTemplate",
          "type": "address"
        },
        {
          "internalType": "bool",
          "name": "_isOpen",
          "type": "bool"
        }
      ],
      "name": "initialize",
      "outputs": [],
      "stateMutability": "nonpayable",
      "type": "function"
    },
    {
      "inputs": [
        {
          "internalType": "address",
          "name": "_parentCommunity",
          "type": "address"
        },
        {
          "internalType": "address",
          "name": "_owner",
          "type": "address"
        },
        {
          "internalType": "string",
          "name": "name",
          "type": "string"
        },
        {
          "internalType": "string",
          "name": "symbol",
          "type": "string"
        },
        {
          "internalType": "bool",
          "name": "_isOpen",
          "type": "bool"
        }
      ],
      "name": "initialize",
      "outputs": [],
      "stateMutability": "nonpayable",
      "type": "function"
    },
    {
      "inputs": [],
      "name": "name",
      "outputs": [
        {
          "internalType": "string",
          "name": "",
          "type": "string"
        }
      ],
      "stateMutability": "view",
      "type": "function",
      "constant": true
    },
    {
      "inputs": [],
      "name": "symbol",
      "outputs": [
        {
          "internalType": "string",
          "name": "",
          "type": "string"
        }
      ],
      "stateMutability": "view",
      "type": "function",
      "constant": true
    },
    {
      "inputs": [
        {
          "internalType": "address payable",
          "name": "_communityTemplate",
          "type": "address"
        }
      ],
      "name": "setCommunityTemplate",
      "outputs": [],
      "stateMutability": "nonpayable",
      "type": "function"
    },
    {
      "inputs": [
        {
          "internalType": "string",
          "name": "_newName",
          "type": "string"
        },
        {
          "internalType": "string",
          "name": "_newSymbol",
          "type": "string"
        },
        {
          "internalType": "bool",
          "name": "_isOpen",
          "type": "bool"
        },
        {
          "internalType": "bytes12",
          "name": "_salt",
          "type": "bytes12"
        }
      ],
      "name": "createCommunity",
      "outputs": [],
      "stateMutability": "nonpayable",
      "type": "function"
    }
  ],
  "bytecode": "0x608060405234801561001057600080fd5b50611f0f806100206000396000f3fe608060405234801561001057600080fd5b50600436106101da5760003560e01c80638da5cb5b11610104578063b532e4cb116100a2578063d547741f11610071578063d547741f14610782578063e58378bb146107ae578063ee5ac9bc146107b6578063f2fde38b146107dc576101da565b8063b532e4cb146106f3578063c079d12714610719578063ca15c8731461073f578063ca6d56dc1461075c576101da565b806395d89b41116100de57806395d89b41146106d3578063985b4689146106db578063a217fddf146106e3578063add9b380146106eb576101da565b80638da5cb5b146106605780639010d07c1461068457806391d14854146106a7576101da565b806347535d7b1161017c578063797669c91161014b578063797669c91461053c5780637c4957eb14610544578063869d785f1461056a57806386d2755314610590576101da565b806347535d7b146104195780635822b77214610435578063704802751461050e57806375b238fc14610534576101da565b80631785f53c116101b85780631785f53c1461036c578063248a9ca3146103925780632f2ff15d146103c157806336568abe146103ed576101da565b806306fdde03146101df5780630b1ca49a1461025c57806310ef9b8714610284575b600080fd5b6101e7610802565b6040805160208082528351818301528351919283929083019185019080838360005b83811015610221578181015183820152602001610209565b50505050905090810190601f16801561024e5780820380516001836020036101000a031916815260200191505b509250505060405180910390f35b6102826004803603602081101561027257600080fd5b50356001600160a01b0316610899565b005b610282600480360360c081101561029a57600080fd5b6001600160a01b038235811692602081013590911691810190606081016040820135600160201b8111156102cd57600080fd5b8201836020820111156102df57600080fd5b803590602001918460018302840111600160201b8311171561030057600080fd5b919390929091602081019035600160201b81111561031d57600080fd5b82018360208201111561032f57600080fd5b803590602001918460018302840111600160201b8311171561035057600080fd5b91935091506001600160a01b0381351690602001351515610970565b6102826004803603602081101561038257600080fd5b50356001600160a01b0316610a9e565b6103af600480360360208110156103a857600080fd5b5035610b27565b60408051918252519081900360200190f35b610282600480360360408110156103d757600080fd5b50803590602001356001600160a01b0316610b3c565b6102826004803603604081101561040357600080fd5b50803590602001356001600160a01b0316610ba8565b610421610c09565b604080519115158252519081900360200190f35b610282600480360360a081101561044b57600080fd5b6001600160a01b038235811692602081013590911691810190606081016040820135600160201b81111561047e57600080fd5b82018360208201111561049057600080fd5b803590602001918460018302840111600160201b831117156104b157600080fd5b919390929091602081019035600160201b8111156104ce57600080fd5b8201836020820111156104e057600080fd5b803590602001918460018302840111600160201b8311171561050157600080fd5b9193509150351515610c12565b6102826004803603602081101561052457600080fd5b50356001600160a01b0316610cfa565b6103af610d47565b6103af610d69565b6102826004803603602081101561055a57600080fd5b50356001600160a01b0316610d8f565b6102826004803603602081101561058057600080fd5b50356001600160a01b0316610ecb565b610282600480360360808110156105a657600080fd5b810190602081018135600160201b8111156105c057600080fd5b8201836020820111156105d257600080fd5b803590602001918460018302840111600160201b831117156105f357600080fd5b919390929091602081019035600160201b81111561061057600080fd5b82018360208201111561062257600080fd5b803590602001918460018302840111600160201b8311171561064357600080fd5b91935091508035151590602001356001600160a01b031916610f5c565b610668610fdb565b604080516001600160a01b039092168252519081900360200190f35b6106686004803603604081101561069a57600080fd5b5080359060200135610fea565b610421600480360360408110156106bd57600080fd5b50803590602001356001600160a01b0316611011565b6101e761102f565b610668611090565b6103af61109f565b6106686110a4565b6102826004803603602081101561070957600080fd5b50356001600160a01b03166110b3565b6104216004803603602081101561072f57600080fd5b50356001600160a01b0316611183565b6103af6004803603602081101561075557600080fd5b5035611198565b6102826004803603602081101561077257600080fd5b50356001600160a01b03166111af565b6102826004803603604081101561079857600080fd5b50803590602001356001600160a01b03166112f0565b6103af611349565b610421600480360360208110156107cc57600080fd5b50356001600160a01b031661136b565b610282600480360360208110156107f257600080fd5b50356001600160a01b0316611399565b609d8054604080516020601f600260001961010060018816150201909516949094049384018190048102820181019092528281526060939092909183018282801561088e5780601f106108635761010080835404028352916020019161088e565b820191906000526020600020905b81548152906001019060200180831161087157829003601f168201915b505050505090505b90565b604080516d4d4f44455241544f525f524f4c4560901b8152905190819003600e0190206097546108d291906001600160a01b0316611011565b806108ea57506097546001600160a01b038281169116145b6109255760405162461bcd60e51b8152600401808060200182810382526023815260200180611df96023913960400191505060405180910390fd5b6001600160a01b0381166000818152609a6020526040808220805460ff19169055513392917faa91016c21c52c58ac64f23f71bbe75becc9ada603e18ee671d09ff15492d1c191a350565b600054610100900460ff1680610989575061098961142b565b80610997575060005460ff16155b6109d25760405162461bcd60e51b815260040180806020018281038252602e815260200180611e7d602e913960400191505060405180910390fd5b600054610100900460ff161580156109fd576000805460ff1961ff0019909116610100171660011790555b610a078883611431565b610a13609d8888611d0f565b50610a20609e8686611d0f565b50609f80546001600160a01b03808c166001600160a01b03199283161790925560a08054928616929091168217905560408051918252517fcff764d89aed7e7a3a1ecc88f0b59e655869186407afd2ecd88979a32a18ef279181900360200190a18015610a93576000805461ff00191690555b505050505050505050565b336001600160a01b0382161415610add57604080516941444d494e5f524f4c4560b01b8152905190819003600a019020610ad89082610ba8565b610b06565b604080516941444d494e5f524f4c4560b01b8152905190819003600a019020610b0690826112f0565b6001600160a01b03166000908152609860205260409020805460ff19169055565b60009081526065602052604090206002015490565b600082815260656020526040902060020154610b5f90610b5a6115fc565b611011565b610b9a5760405162461bcd60e51b815260040180806020018281038252602f815260200180611dca602f913960400191505060405180910390fd5b610ba48282611600565b5050565b610bb06115fc565b6001600160a01b0316816001600160a01b031614610bff5760405162461bcd60e51b815260040180806020018281038252602f815260200180611eab602f913960400191505060405180910390fd5b610ba4828261166f565b609b5460ff1681565b600054610100900460ff1680610c2b5750610c2b61142b565b80610c39575060005460ff16155b610c745760405162461bcd60e51b815260040180806020018281038252602e815260200180611e7d602e913960400191505060405180910390fd5b600054610100900460ff16158015610c9f576000805460ff1961ff0019909116610100171660011790555b610ca98783611431565b610cb5609d8787611d0f565b50610cc2609e8585611d0f565b50609f80546001600160a01b0319166001600160a01b038a161790558015610cf0576000805461ff00191690555b5050505050505050565b604080516941444d494e5f524f4c4560b01b8152905190819003600a019020610d239082610b3c565b6001600160a01b03166000908152609860205260409020805460ff19166001179055565b604080516941444d494e5f524f4c4560b01b8152905190819003600a01902081565b604080516d4d4f44455241544f525f524f4c4560901b8152905190819003600e01902081565b6097546001600160a01b03163314610dee576040805162461bcd60e51b815260206004820181905260248201527f4f776e61626c653a2063616c6c6572206973206e6f7420746865206f776e6572604482015290519081900360640190fd5b60408051632c115bb960e11b81523060048201526000602482018190526001608483015260a0604483015260a4820181905260e0606483015260e4820181905291516001600160a01b03841692635822b77292610124808201939182900301818387803b158015610e5e57600080fd5b505af1158015610e72573d6000803e3d6000fd5b505060a080546001600160a01b0385166001600160a01b0319909116811790915560408051918252517fcff764d89aed7e7a3a1ecc88f0b59e655869186407afd2ecd88979a32a18ef279350908190036020019150a150565b336001600160a01b0382161415610f0e57604080516d4d4f44455241544f525f524f4c4560901b8152905190819003600e019020610f099082610ba8565b610f3b565b604080516d4d4f44455241544f525f524f4c4560901b8152905190819003600e019020610f3b90826112f0565b6001600160a01b03166000908152609960205260409020805460ff19169055565b610fd386868080601f01602080910402602001604051908101604052809392919081815260200183838082843760009201919091525050604080516020601f8a0181900481028201810190925288815292508891508790819084018382808284376000920191909152508792508691506116de9050565b505050505050565b6097546001600160a01b031690565b6000828152606560205260408120611008908363ffffffff6118d116565b90505b92915050565b6000828152606560205260408120611008908363ffffffff6118dd16565b609e8054604080516020601f600260001961010060018816150201909516949094049384018190048102820181019092528281526060939092909183018282801561088e5780601f106108635761010080835404028352916020019161088e565b609f546001600160a01b031681565b600081565b60a0546001600160a01b031681565b604080516941444d494e5f524f4c4560b01b8152905190819003600a0190206097546110e891906001600160a01b0316611011565b611132576040805162461bcd60e51b815260206004820152601660248201527521b0b63632b91034b9903737ba1030b71030b236b4b760511b604482015290519081900360640190fd5b604080516d4d4f44455241544f525f524f4c4560901b8152905190819003600e01902061115f9082610b3c565b6001600160a01b03166000908152609960205260409020805460ff19166001179055565b609c6020526000908152604090205460ff1681565b600081815260656020526040812061100b906118f2565b609b5460ff161561120a576001600160a01b0381166000818152609a6020526040808220805460ff19166001179055513392917f6a2af11b2d73f347f9d5840aea46899e17609730b5cd91bd9c312098038acba691a36112ed565b604080516d4d4f44455241544f525f524f4c4560901b8152905190819003600e0190206112379033611011565b806112665750604080516941444d494e5f524f4c4560b01b8152905190819003600a0190206112669033611011565b6112a15760405162461bcd60e51b8152600401808060200182810382526031815260200180611e4c6031913960400191505060405180910390fd5b6001600160a01b0381166000818152609a6020526040808220805460ff19166001179055513392917f6a2af11b2d73f347f9d5840aea46899e17609730b5cd91bd9c312098038acba691a35b50565b60008281526065602052604090206002015461130e90610b5a6115fc565b610bff5760405162461bcd60e51b8152600401808060200182810382526030815260200180611e1c6030913960400191505060405180910390fd5b60408051694f574e45525f524f4c4560b01b8152905190819003600a01902081565b609b5460009060ff168061100b5750506001600160a01b03166000908152609a602052604090205460ff1690565b60408051694f574e45525f524f4c4560b01b8152905190819003600a0190206113c29082610b3c565b6113cb81610cfa565b6113d4816110b3565b60408051694f574e45525f524f4c4560b01b8152905190819003600a01902060975461140991906001600160a01b0316610ba8565b609780546001600160a01b0319166001600160a01b0392909216919091179055565b303b1590565b6114396118fd565b60408051694f574e45525f524f4c4560b01b8152905190819003600a0190206114629083610b9a565b604080516941444d494e5f524f4c4560b01b8152905190819003600a01902061148b9083610b9a565b604080516d4d4f44455241544f525f524f4c4560901b8152905190819003600e0190206114b89083610b9a565b6001600160a01b03821660009081526098602090815260408083208054600160ff199182168117909255609984528285208054821683179055609a90935292819020805490921690921790558051694f574e45525f524f4c4560b01b8082528251600a928190038301812091815292519283900390910190912061153c91906119ae565b604080516941444d494e5f524f4c4560b01b8152815190819003600a9081018220694f574e45525f524f4c4560b01b835292519182900301902061158091906119ae565b604080516d4d4f44455241544f525f524f4c4560901b8152815190819003600e0181206941444d494e5f524f4c4560b01b8252915190819003600a0190206115c891906119ae565b609780546001600160a01b0319166001600160a01b039390931692909217909155609b805460ff1916911515919091179055565b3390565b600082815260656020526040902061161e908263ffffffff6119c316565b15610ba45761162b6115fc565b6001600160a01b0316816001600160a01b0316837f2f8788117e7eff1d82e926ec794901d17c78024a50270940304540a733656f0d60405160405180910390a45050565b600082815260656020526040902061168d908263ffffffff6119d816565b15610ba45761169a6115fc565b6001600160a01b0316816001600160a01b0316837ff6391f5c32d9c69d2a47ea670b442974b53935d1edc7fd64eb21e047a839171b60405160405180910390a45050565b6040513360601b8152601481018290525160a05460009061170e906001600160a01b03168363ffffffff6119ed16565b60a0546040516310ef9b8760e01b8152306004820181815233602484018190526001600160a01b03948516608485018190528a151560a486015260c0604486019081528d5160c48701528d51979850958816966310ef9b8796949592948e948e948e93919291606482019160e40190602089019080838360005b838110156117a0578181015183820152602001611788565b50505050905090810190601f1680156117cd5780820380516001836020036101000a031916815260200191505b50838103825286518152865160209182019188019080838360005b838110156118005781810151838201526020016117e8565b50505050905090810190601f16801561182d5780820380516001836020036101000a031916815260200191505b5098505050505050505050600060405180830381600087803b15801561185257600080fd5b505af1158015611866573d6000803e3d6000fd5b50506040805160208082018352600182526001600160a01b0386166000818152609c9092528382209251835460ff19169015151790925591519093503392507fa7f18208bc617ae555b955dc6407782a419f8b015b70fabb060b6c8c9b979b4a9190a3505050505050565b60006110088383611adf565b6000611008836001600160a01b038416611b43565b600061100b82611b5b565b600054610100900460ff1680611916575061191661142b565b80611924575060005460ff16155b61195f5760405162461bcd60e51b815260040180806020018281038252602e815260200180611e7d602e913960400191505060405180910390fd5b600054610100900460ff1615801561198a576000805460ff1961ff0019909116610100171660011790555b611992611b5f565b61199a611b5f565b80156112ed576000805461ff001916905550565b60009182526065602052604090912060020155565b6000611008836001600160a01b038416611bff565b6000611008836001600160a01b038416611c49565b6000604051733d602d80600a3d3981f3363d3d373d3d3d363d7360601b81528360601b60148201526e5af43d82803e903d91602b57fd5bf360881b602882015260378120836101008301526001600160f81b031960408301523060601b6041830152610100820151605583015280607583015250605560408201209150813b60008114611a7d5760009250611a8c565b6101008201516037836000f592505b50506001600160a01b03811661100b576040805162461bcd60e51b8152602060048201526013602482015272141493d61657d111541313d657d19052531151606a1b604482015290519081900360640190fd5b81546000908210611b215760405162461bcd60e51b8152600401808060200182810382526022815260200180611da86022913960400191505060405180910390fd5b826000018281548110611b3057fe5b9060005260206000200154905092915050565b60009081526001919091016020526040902054151590565b5490565b600054610100900460ff1680611b785750611b7861142b565b80611b86575060005460ff16155b611bc15760405162461bcd60e51b815260040180806020018281038252602e815260200180611e7d602e913960400191505060405180910390fd5b600054610100900460ff1615801561199a576000805460ff1961ff00199091166101001716600117905580156112ed576000805461ff001916905550565b6000611c0b8383611b43565b611c415750815460018181018455600084815260208082209093018490558454848252828601909352604090209190915561100b565b50600061100b565b60008181526001830160205260408120548015611d055783546000198083019190810190600090879083908110611c7c57fe5b9060005260206000200154905080876000018481548110611c9957fe5b600091825260208083209091019290925582815260018981019092526040902090840190558654879080611cc957fe5b6001900381819060005260206000200160009055905586600101600087815260200190815260200160002060009055600194505050505061100b565b600091505061100b565b828054600181600116156101000203166002900490600052602060002090601f016020900481019282601f10611d505782800160ff19823516178555611d7d565b82800160010185558215611d7d579182015b82811115611d7d578235825591602001919060010190611d62565b50611d89929150611d8d565b5090565b61089691905b80821115611d895760008155600101611d9356fe456e756d657261626c655365743a20696e646578206f7574206f6620626f756e6473416363657373436f6e74726f6c3a2073656e646572206d75737420626520616e2061646d696e20746f206772616e7443616c6c6572206973206e6f742061206d6f64657261746f72206f7220697473656c66416363657373436f6e74726f6c3a2073656e646572206d75737420626520616e2061646d696e20746f207265766f6b6553656e646572206d7573742062652061646d696e206f72206d6f64657261746f7220746f206164642061206d656d626572436f6e747261637420696e7374616e63652068617320616c7265616479206265656e20696e697469616c697a6564416363657373436f6e74726f6c3a2063616e206f6e6c792072656e6f756e636520726f6c657320666f722073656c66a264697066735822122012f57b81820476e943d761428ded7e8a55f00a4c8c3e2ae7cf978f0e50cec43464736f6c63430006070033",
  "immutableReferences": {},
  "source": "pragma solidity 0.6.7;\n\nimport \"@openzeppelin/contracts-ethereum-package/contracts/Initializable.sol\";\nimport \"hardlydifficult-eth/contracts/proxies/Clone2Factory.sol\";\nimport \"./CommunityRoles.sol\";\n\ncontract RainCommunity is\n  Initializable,\n  CommunityRoles\n{\n  using Clone2Factory for address;\n\n  struct Community {\n    bool deployed;\n  }\n\n  mapping(address => Community) public childCommunities;\n\n  string private _name;\n  string private _symbol;\n\n  address public parentCommunity;\n\n  address payable public communityTemplate;\n\n  event NewCommunity(address indexed creator, address indexed newCommunityAddress);\n  event SetCommunityTemplate(address communityTemplate);\n\n  function initialize(\n    address _parentCommunity,\n    address _owner,\n    string calldata name,\n    string calldata symbol,\n    bool _isOpen\n  ) external\n    initializer\n  {\n    _initializeComunityRoles(_owner, _isOpen);\n    _name = name;\n    _symbol = symbol;\n    parentCommunity = _parentCommunity;\n  }\n\n  function initialize(\n    address _parentCommunity,\n    address _owner,\n    string calldata name,\n    string calldata symbol,\n    address payable _defaultTemplate,\n    bool _isOpen\n  ) external\n    initializer\n  {\n    // TODO: should check to make sure default template is initialized\n\n    _initializeComunityRoles(_owner, _isOpen);\n    _name = name;\n    _symbol = symbol;\n    parentCommunity = _parentCommunity;\n    communityTemplate = _defaultTemplate;\n    emit SetCommunityTemplate(_defaultTemplate);\n  }\n\n  /**\n   * @dev Returns the name of the community.\n   */\n  function name() external view returns (string memory) {\n    return _name;\n  }\n\n  /**\n   * @dev Returns the symbol of the community.\n   */\n  function symbol() external view returns (string memory) {\n    return _symbol;\n  }\n\n  function setCommunityTemplate(\n    address payable _communityTemplate\n  ) external\n    onlyOwner()\n  {\n    RainCommunity(_communityTemplate).initialize(\n      address(this), address(0), \"\", \"\", true\n    );\n\n    communityTemplate = _communityTemplate;\n\n    emit SetCommunityTemplate(_communityTemplate);\n  }\n\n  function createCommunity(\n    string calldata _newName,\n    string calldata _newSymbol,\n    bool _isOpen,\n    bytes12 _salt\n  ) external\n  {\n    _createCommunity(_newName, _newSymbol, _isOpen, _salt);\n  }\n\n  function _createCommunity(\n    string memory _newName,\n    string memory _newSymbol,\n    bool _isOpen,\n    bytes12 _salt\n  ) private\n  {\n    bytes32 salt;\n\n    assembly {\n      let pointer := mload(0x40)\n      mstore(pointer, shl(96, caller()))\n      mstore(add(pointer, 0x14), _salt)\n      salt := mload(pointer)\n    }\n\n    address payable newCommunity = address(uint160(address(communityTemplate).createClone2(salt)));\n    RainCommunity(newCommunity).initialize(address(this), msg.sender, _newName, _newSymbol, communityTemplate, _isOpen);\n    childCommunities[newCommunity] = Community({ deployed: true });\n    emit NewCommunity(msg.sender, newCommunity);\n  }\n}\n",
  "sourcePath": "/Users/newuser/rain_dir/clearrain/smart-contracts/contracts/RainCommunity.sol",
  "compiler": {
    "name": "solc",
    "version": "0.6.7+commit.b8d736ae.Emscripten.clang"
  },
  "schemaVersion": "3.2.0",
  "updatedAt": "2020-06-10T15:05:34.102Z",
  "networkType": "ethereum",
  "devdoc": {
    "methods": {
      "getRoleAdmin(bytes32)": {
        "details": "Returns the admin role that controls `role`. See {grantRole} and {revokeRole}.     * To change a role's admin, use {_setRoleAdmin}."
      },
      "getRoleMember(bytes32,uint256)": {
        "details": "Returns one of the accounts that have `role`. `index` must be a value between 0 and {getRoleMemberCount}, non-inclusive.     * Role bearers are not sorted in any particular way, and their ordering may change at any point.     * WARNING: When using {getRoleMember} and {getRoleMemberCount}, make sure you perform all queries on the same block. See the following https://forum.openzeppelin.com/t/iterating-over-elements-on-enumerableset-in-openzeppelin-contracts/2296[forum post] for more information."
      },
      "getRoleMemberCount(bytes32)": {
        "details": "Returns the number of accounts that have `role`. Can be used together with {getRoleMember} to enumerate all bearers of a role."
      },
      "grantRole(bytes32,address)": {
        "details": "Grants `role` to `account`.     * If `account` had not been already granted `role`, emits a {RoleGranted} event.     * Requirements:     * - the caller must have ``role``'s admin role."
      },
      "hasRole(bytes32,address)": {
        "details": "Returns `true` if `account` has been granted `role`."
      },
      "name()": {
        "details": "Returns the name of the community."
      },
      "renounceRole(bytes32,address)": {
        "details": "Revokes `role` from the calling account.     * Roles are often managed via {grantRole} and {revokeRole}: this function's purpose is to provide a mechanism for accounts to lose their privileges if they are compromised (such as when a trusted device is misplaced).     * If the calling account had been granted `role`, emits a {RoleRevoked} event.     * Requirements:     * - the caller must be `account`."
      },
      "revokeRole(bytes32,address)": {
        "details": "Revokes `role` from `account`.     * If `account` had been granted `role`, emits a {RoleRevoked} event.     * Requirements:     * - the caller must have ``role``'s admin role."
      },
      "symbol()": {
        "details": "Returns the symbol of the community."
      }
    }
  },
  "userdoc": {
    "methods": {}
  }
}